:100000000C9477000C9420010C9420010C94200196
:100010000C9420010C9420010C9420010C942001DC
:100020000C9420010C9420010C9420010C942001CC
:100030000C9420010C9420010C9420010C942001BC
:100040000C9420010C9420010C9420010C942001AC
:100050000C9420010C9420010C9420010C9420019C
:100060000C9420010C9420010C9420010C9420018C
:100070000C9420010C9420010C9420010C9420017C
:100080000C9420010C9420010C9420010C9420016C
:100090000C9420010C9420010C9420010C9420015C
:1000A0000C9420010C9420010C9420010C9420014C
:1000B0000C9420010C9420010C9420010C9420013C
:1000C0000C9420010C9420010C9420010C9420012C
:1000D0000C9420010C9420010C9420010C9420011C
:1000E0000C9420010C942001400040028000112457
:1000F0001FBECFEFCDBFDFE7DEBFE8EEF0E040E0B0
:1001000019C0B791A79137912791079107FD0EC0AC
:1001100097918791EF01F92FE82F0BBF07900D9270
:10012000A217B307D9F7FE011BBE04C01D92A21788
:10013000B307E1F7ED3EF40721F70E94A3000C940A
:06014000A100F894FFCFBE
:100146000E94E50081E080930A06C0E0D6E00E94A6
:100156001C018823E1F38889998980930040909354
:1001660001408091004090910140929582958F7058
:1001760089279F708927809300409093014083E0F0
:100186000E940E0180910040909101400E940E0154
:100196008091004090910140892F0E940E018CEFC2
:0601A6000E940E01D4CFFF
:1001AC0081E080934104E0E6F4E08389887F838BCF
:0E01BC0083898460838B8389877F838B08957A
:1001CA000E9406010E94D60081E08093A0000E944E
:0801DA00FC000E94F1000895F1
:1001E200E0E2F8E08BE890E08087918780E4868304
:0601F20083E087830895FD
:1001F800E0E0F6E081E0828383E08083808786E028
:040208008183089551
:10020C00609168006C6088E690E00E941601089589
:10021C00E0E2F8E0948195FFFDCF809322080895E9
:0C022C00DC0128ED209334006C93089551
:0802380080910D06817008950C
:040240000C9400001A
:00000001FF
